{
  "_format": "hh-sol-artifact-1",
  "contractName": "Ok",
  "sourceName": "contracts/Ok.sol",
  "abi": [
    {
      "inputs": [],
      "name": "getValue",
      "outputs": [
        {
          "internalType": "uint256",
          "name": "",
          "type": "uint256"
        }
      ],
      "stateMutability": "pure",
      "type": "function"
    }
  ],
  "bytecode": "0x6080604052348015600f57600080fd5b5060b680601d6000396000f3fe6080604052348015600f57600080fd5b506004361060285760003560e01c80632096525514602d575b600080fd5b60336047565b604051603e91906067565b60405180910390f35b6000600e905090565b6000819050919050565b6061816050565b82525050565b6000602082019050607a6000830184605a565b9291505056fea26469706673582212204de89057cf7c8528eb7d33fc709177e1a33a2d2fc7fb8fb9d78ee06140e6873164736f6c634300081c0033",
  "linkReferences": {},
  "deployedLinkReferences": {}
}