{
  "_format": "hh-sol-artifact-1",
  "contractName": "Raffle",
  "sourceName": "contracts/Raffle.sol",
  "abi": [
    {
      "inputs": [
        {
          "internalType": "address",
          "name": "vrfCoordinatorV2",
          "type": "address"
        },
        {
          "internalType": "uint256",
          "name": "entranceFee",
          "type": "uint256"
        },
        {
          "internalType": "bytes32",
          "name": "gasLane",
          "type": "bytes32"
        },
        {
          "internalType": "uint64",
          "name": "subscriptionId",
          "type": "uint64"
        },
        {
          "internalType": "uint32",
          "name": "callbackGasLimit",
          "type": "uint32"
        },
        {
          "internalType": "uint256",
          "name": "interval",
          "type": "uint256"
        }
      ],
      "stateMutability": "nonpayable",
      "type": "constructor"
    },
    {
      "inputs": [
        {
          "internalType": "address",
          "name": "have",
          "type": "address"
        },
        {
          "internalType": "address",
          "name": "want",
          "type": "address"
        }
      ],
      "name": "OnlyCoordinatorCanFulfill",
      "type": "error"
    },
    {
      "inputs": [],
      "name": "Raffle__LotteryIsClosed",
      "type": "error"
    },
    {
      "inputs": [],
      "name": "Raffle__NotEnoughETHSent",
      "type": "error"
    },
    {
      "inputs": [],
      "name": "Raffle__TransferFailed",
      "type": "error"
    },
    {
      "inputs": [],
      "name": "Raffle__UpkeedNotNeeded",
      "type": "error"
    },
    {
      "anonymous": false,
      "inputs": [
        {
          "indexed": true,
          "internalType": "address",
          "name": "player",
          "type": "address"
        }
      ],
      "name": "RaffleEnter",
      "type": "event"
    },
    {
      "anonymous": false,
      "inputs": [
        {
          "indexed": true,
          "internalType": "uint256",
          "name": "requestId",
          "type": "uint256"
        }
      ],
      "name": "RequestedRaffleWinner",
      "type": "event"
    },
    {
      "anonymous": false,
      "inputs": [
        {
          "indexed": true,
          "internalType": "address",
          "name": "winner",
          "type": "address"
        }
      ],
      "name": "WinnerPicked",
      "type": "event"
    },
    {
      "inputs": [
        {
          "internalType": "bytes",
          "name": "",
          "type": "bytes"
        }
      ],
      "name": "checkUpkeep",
      "outputs": [
        {
          "internalType": "bool",
          "name": "upkeepNeeded",
          "type": "bool"
        },
        {
          "internalType": "bytes",
          "name": "",
          "type": "bytes"
        }
      ],
      "stateMutability": "nonpayable",
      "type": "function"
    },
    {
      "inputs": [],
      "name": "enterRaffle",
      "outputs": [],
      "stateMutability": "payable",
      "type": "function"
    },
    {
      "inputs": [],
      "name": "getEntraceFee",
      "outputs": [
        {
          "internalType": "uint256",
          "name": "",
          "type": "uint256"
        }
      ],
      "stateMutability": "view",
      "type": "function"
    },
    {
      "inputs": [],
      "name": "getInterval",
      "outputs": [
        {
          "internalType": "uint256",
          "name": "",
          "type": "uint256"
        }
      ],
      "stateMutability": "view",
      "type": "function"
    },
    {
      "inputs": [],
      "name": "getLastTimestamp",
      "outputs": [
        {
          "internalType": "uint256",
          "name": "",
          "type": "uint256"
        }
      ],
      "stateMutability": "view",
      "type": "function"
    },
    {
      "inputs": [],
      "name": "getNumWords",
      "outputs": [
        {
          "internalType": "uint256",
          "name": "",
          "type": "uint256"
        }
      ],
      "stateMutability": "pure",
      "type": "function"
    },
    {
      "inputs": [],
      "name": "getNumbersOfPlayers",
      "outputs": [
        {
          "internalType": "uint256",
          "name": "",
          "type": "uint256"
        }
      ],
      "stateMutability": "view",
      "type": "function"
    },
    {
      "inputs": [
        {
          "internalType": "uint256",
          "name": "index",
          "type": "uint256"
        }
      ],
      "name": "getPlayer",
      "outputs": [
        {
          "internalType": "address",
          "name": "",
          "type": "address"
        }
      ],
      "stateMutability": "view",
      "type": "function"
    },
    {
      "inputs": [],
      "name": "getRaffleState",
      "outputs": [
        {
          "internalType": "enum Raffle.RaffleState",
          "name": "",
          "type": "uint8"
        }
      ],
      "stateMutability": "view",
      "type": "function"
    },
    {
      "inputs": [],
      "name": "getRecentWinner",
      "outputs": [
        {
          "internalType": "address",
          "name": "",
          "type": "address"
        }
      ],
      "stateMutability": "view",
      "type": "function"
    },
    {
      "inputs": [
        {
          "internalType": "bytes",
          "name": "",
          "type": "bytes"
        }
      ],
      "name": "performUpkeep",
      "outputs": [],
      "stateMutability": "nonpayable",
      "type": "function"
    },
    {
      "inputs": [
        {
          "internalType": "uint256",
          "name": "requestId",
          "type": "uint256"
        },
        {
          "internalType": "uint256[]",
          "name": "randomWords",
          "type": "uint256[]"
        }
      ],
      "name": "rawFulfillRandomWords",
      "outputs": [],
      "stateMutability": "nonpayable",
      "type": "function"
    }
  ],
  "bytecode": "0x61016060405234801561001157600080fd5b506040516116e63803806116e683398181016040528101906100339190610270565b858073ffffffffffffffffffffffffffffffffffffffff1660808173ffffffffffffffffffffffffffffffffffffffff1681525050508460a081815250508573ffffffffffffffffffffffffffffffffffffffff1660c08173ffffffffffffffffffffffffffffffffffffffff16815250508360e081815250508267ffffffffffffffff166101008167ffffffffffffffff16815250508163ffffffff166101208163ffffffff16815250506000600260006101000a81548160ff02191690836001811115610105576101046102fd565b5b02179055504260018190555080610140818152505050505050505061032c565b600080fd5b600073ffffffffffffffffffffffffffffffffffffffff82169050919050565b60006101558261012a565b9050919050565b6101658161014a565b811461017057600080fd5b50565b6000815190506101828161015c565b92915050565b6000819050919050565b61019b81610188565b81146101a657600080fd5b50565b6000815190506101b881610192565b92915050565b6000819050919050565b6101d1816101be565b81146101dc57600080fd5b50565b6000815190506101ee816101c8565b92915050565b600067ffffffffffffffff82169050919050565b610211816101f4565b811461021c57600080fd5b50565b60008151905061022e81610208565b92915050565b600063ffffffff82169050919050565b61024d81610234565b811461025857600080fd5b50565b60008151905061026a81610244565b92915050565b60008060008060008060c0878903121561028d5761028c610125565b5b600061029b89828a01610173565b96505060206102ac89828a016101a9565b95505060406102bd89828a016101df565b94505060606102ce89828a0161021f565b93505060806102df89828a0161025b565b92505060a06102f089828a016101a9565b9150509295509295509295565b7f4e487b7100000000000000000000000000000000000000000000000000000000600052602160045260246000fd5b60805160a05160c05160e05161010051610120516101405161134b61039b6000396000818161073801526107b301526000610603015260006105e0015260006105bf015260006105830152600081816103f601526107db0152600081816102c9015261031d015261134b6000f3fe6080604052600436106100a75760003560e01c806353a2c19a1161006457806353a2c19a146101895780636e04ff0d146101b45780638233a076146101f257806391ad27b41461021d578063ce147cf314610248578063e55ae4e814610273576100a7565b8063115cbaf5146100ac5780631fe543e3146100d75780632cfcc53914610100578063378997701461010a5780634585e33b14610135578063473f1ddc1461015e575b600080fd5b3480156100b857600080fd5b506100c16102b0565b6040516100ce9190610b6a565b60405180910390f35b3480156100e357600080fd5b506100fe60048036038101906100f99190610d28565b6102c7565b005b610108610387565b005b34801561011657600080fd5b5061011f6104f6565b60405161012c9190610d93565b60405180910390f35b34801561014157600080fd5b5061015c60048036038101906101579190610e09565b610500565b005b34801561016a57600080fd5b506101736106bc565b6040516101809190610e97565b60405180910390f35b34801561019557600080fd5b5061019e6106e6565b6040516101ab9190610d93565b60405180910390f35b3480156101c057600080fd5b506101db60048036038101906101d69190610f67565b6106f5565b6040516101e992919061104a565b60405180910390f35b3480156101fe57600080fd5b506102076107a3565b6040516102149190610d93565b60405180910390f35b34801561022957600080fd5b506102326107af565b60405161023f9190610d93565b60405180910390f35b34801561025457600080fd5b5061025d6107d7565b60405161026a9190610d93565b60405180910390f35b34801561027f57600080fd5b5061029a6004803603810190610295919061107a565b6107ff565b6040516102a79190610e97565b60405180910390f35b6000600260009054906101000a900460ff16905090565b7f000000000000000000000000000000000000000000000000000000000000000073ffffffffffffffffffffffffffffffffffffffff163373ffffffffffffffffffffffffffffffffffffffff161461037957337f00000000000000000000000000000000000000000000000000000000000000006040517f1cf993f40000000000000000000000000000000000000000000000000000000081526004016103709291906110a7565b60405180910390fd5b6103838282610846565b5050565b6000600181111561039b5761039a610af3565b5b600260009054906101000a900460ff1660018111156103bd576103bc610af3565b5b146103f4576040517f30e0188200000000000000000000000000000000000000000000000000000000815260040160405180910390fd5b7f000000000000000000000000000000000000000000000000000000000000000034101561044e576040517f7096b45600000000000000000000000000000000000000000000000000000000815260040160405180910390fd5b6000339080600181540180825580915050600190039060005260206000200160009091909190916101000a81548173ffffffffffffffffffffffffffffffffffffffff021916908373ffffffffffffffffffffffffffffffffffffffff1602179055503373ffffffffffffffffffffffffffffffffffffffff167f0805e1d667bddb8a95f0f09880cf94f403fb596ce79928d9f29b74203ba284d460405160405180910390a2565b6000600154905090565b600061051a604051806020016040528060008152506106f5565b50905080610554576040517f6e6aa77100000000000000000000000000000000000000000000000000000000815260040160405180910390fd5b6001600260006101000a81548160ff0219169083600181111561057a57610579610af3565b5b021790555060007f000000000000000000000000000000000000000000000000000000000000000073ffffffffffffffffffffffffffffffffffffffff16635d3b1d307f00000000000000000000000000000000000000000000000000000000000000007f000000000000000000000000000000000000000000000000000000000000000060037f000000000000000000000000000000000000000000000000000000000000000060016040518663ffffffff1660e01b8152600401610644959493929190611148565b6020604051808303816000875af1158015610663573d6000803e3d6000fd5b505050506040513d601f19601f8201168201806040525081019061068791906111b0565b9050807fcd6e45c8998311cab7e9d4385596cac867e20a0587194b954fa3a731c93ce78b60405160405180910390a250505050565b6000600260019054906101000a900473ffffffffffffffffffffffffffffffffffffffff16905090565b6000600163ffffffff16905090565b600060606000600260009054906101000a900460ff16600181111561071d5761071c610af3565b5b6000600181111561073157610730610af3565b5b14905060007f000000000000000000000000000000000000000000000000000000000000000060015442610765919061120c565b10159050600080600080549050119050600080471190508380156107865750825b801561078f5750815b80156107985750805b955050505050915091565b60008080549050905090565b60007f0000000000000000000000000000000000000000000000000000000000000000905090565b60007f0000000000000000000000000000000000000000000000000000000000000000905090565b600080828154811061081457610813611240565b5b9060005260206000200160009054906101000a900473ffffffffffffffffffffffffffffffffffffffff169050919050565b600080805490508260008151811061086157610860611240565b5b6020026020010151610873919061129e565b9050600080828154811061088a57610889611240565b5b9060005260206000200160009054906101000a900473ffffffffffffffffffffffffffffffffffffffff16905080600260016101000a81548173ffffffffffffffffffffffffffffffffffffffff021916908373ffffffffffffffffffffffffffffffffffffffff160217905550600067ffffffffffffffff81111561091357610912610be5565b5b6040519080825280602002602001820160405280156109415781602001602082028036833780820191505090505b5060009080519060200190610957929190610a4c565b504260018190555060008173ffffffffffffffffffffffffffffffffffffffff164760405161098590611300565b60006040518083038185875af1925050503d80600081146109c2576040519150601f19603f3d011682016040523d82523d6000602084013e6109c7565b606091505b5050905080610a02576040517fa1d04b3900000000000000000000000000000000000000000000000000000000815260040160405180910390fd5b8173ffffffffffffffffffffffffffffffffffffffff167f5b690ec4a06fe979403046eaeea5b3ce38524683c3001f662c8b5a829632f7df60405160405180910390a25050505050565b828054828255906000526020600020908101928215610ac5579160200282015b82811115610ac45782518260006101000a81548173ffffffffffffffffffffffffffffffffffffffff021916908373ffffffffffffffffffffffffffffffffffffffff16021790555091602001919060010190610a6c565b5b509050610ad29190610ad6565b5090565b5b80821115610aef576000816000905550600101610ad7565b5090565b7f4e487b7100000000000000000000000000000000000000000000000000000000600052602160045260246000fd5b60028110610b3357610b32610af3565b5b50565b6000819050610b4482610b22565b919050565b6000610b5482610b36565b9050919050565b610b6481610b49565b82525050565b6000602082019050610b7f6000830184610b5b565b92915050565b6000604051905090565b600080fd5b600080fd5b6000819050919050565b610bac81610b99565b8114610bb757600080fd5b50565b600081359050610bc981610ba3565b92915050565b600080fd5b6000601f19601f8301169050919050565b7f4e487b7100000000000000000000000000000000000000000000000000000000600052604160045260246000fd5b610c1d82610bd4565b810181811067ffffffffffffffff82111715610c3c57610c3b610be5565b5b80604052505050565b6000610c4f610b85565b9050610c5b8282610c14565b919050565b600067ffffffffffffffff821115610c7b57610c7a610be5565b5b602082029050602081019050919050565b600080fd5b6000610ca4610c9f84610c60565b610c45565b90508083825260208201905060208402830185811115610cc757610cc6610c8c565b5b835b81811015610cf05780610cdc8882610bba565b845260208401935050602081019050610cc9565b5050509392505050565b600082601f830112610d0f57610d0e610bcf565b5b8135610d1f848260208601610c91565b91505092915050565b60008060408385031215610d3f57610d3e610b8f565b5b6000610d4d85828601610bba565b925050602083013567ffffffffffffffff811115610d6e57610d6d610b94565b5b610d7a85828601610cfa565b9150509250929050565b610d8d81610b99565b82525050565b6000602082019050610da86000830184610d84565b92915050565b600080fd5b60008083601f840112610dc957610dc8610bcf565b5b8235905067ffffffffffffffff811115610de657610de5610dae565b5b602083019150836001820283011115610e0257610e01610c8c565b5b9250929050565b60008060208385031215610e2057610e1f610b8f565b5b600083013567ffffffffffffffff811115610e3e57610e3d610b94565b5b610e4a85828601610db3565b92509250509250929050565b600073ffffffffffffffffffffffffffffffffffffffff82169050919050565b6000610e8182610e56565b9050919050565b610e9181610e76565b82525050565b6000602082019050610eac6000830184610e88565b92915050565b600080fd5b600067ffffffffffffffff821115610ed257610ed1610be5565b5b610edb82610bd4565b9050602081019050919050565b82818337600083830152505050565b6000610f0a610f0584610eb7565b610c45565b905082815260208101848484011115610f2657610f25610eb2565b5b610f31848285610ee8565b509392505050565b600082601f830112610f4e57610f4d610bcf565b5b8135610f5e848260208601610ef7565b91505092915050565b600060208284031215610f7d57610f7c610b8f565b5b600082013567ffffffffffffffff811115610f9b57610f9a610b94565b5b610fa784828501610f39565b91505092915050565b60008115159050919050565b610fc581610fb0565b82525050565b600081519050919050565b600082825260208201905092915050565b60005b83811015611005578082015181840152602081019050610fea565b60008484015250505050565b600061101c82610fcb565b6110268185610fd6565b9350611036818560208601610fe7565b61103f81610bd4565b840191505092915050565b600060408201905061105f6000830185610fbc565b81810360208301526110718184611011565b90509392505050565b6000602082840312156110905761108f610b8f565b5b600061109e84828501610bba565b91505092915050565b60006040820190506110bc6000830185610e88565b6110c96020830184610e88565b9392505050565b6000819050919050565b6110e3816110d0565b82525050565b600067ffffffffffffffff82169050919050565b611106816110e9565b82525050565b600061ffff82169050919050565b6111238161110c565b82525050565b600063ffffffff82169050919050565b61114281611129565b82525050565b600060a08201905061115d60008301886110da565b61116a60208301876110fd565b611177604083018661111a565b6111846060830185611139565b6111916080830184611139565b9695505050505050565b6000815190506111aa81610ba3565b92915050565b6000602082840312156111c6576111c5610b8f565b5b60006111d48482850161119b565b91505092915050565b7f4e487b7100000000000000000000000000000000000000000000000000000000600052601160045260246000fd5b600061121782610b99565b915061122283610b99565b925082820390508181111561123a576112396111dd565b5b92915050565b7f4e487b7100000000000000000000000000000000000000000000000000000000600052603260045260246000fd5b7f4e487b7100000000000000000000000000000000000000000000000000000000600052601260045260246000fd5b60006112a982610b99565b91506112b483610b99565b9250826112c4576112c361126f565b5b828206905092915050565b600081905092915050565b50565b60006112ea6000836112cf565b91506112f5826112da565b600082019050919050565b600061130b826112dd565b915081905091905056fea264697066735822122056bd292bcb72320e03f79fb60ee513b9194772e92214bac89ac596163cc3963d64736f6c634300081c0033",
  "linkReferences": {},
  "deployedLinkReferences": {}
}